{
  "contractName": "ChaoticumSeminario",
  "abi": [
    {
      "anonymous": false,
      "inputs": [
        {
          "indexed": false,
          "internalType": "uint256",
          "name": "x",
          "type": "uint256"
        },
        {
          "indexed": false,
          "internalType": "uint256",
          "name": "y",
          "type": "uint256"
        },
        {
          "indexed": false,
          "internalType": "uint256",
          "name": "result",
          "type": "uint256"
        }
      ],
      "name": "IntegersAdded",
      "type": "event"
    },
    {
      "inputs": [
        {
          "internalType": "uint256",
          "name": "",
          "type": "uint256"
        }
      ],
      "name": "seminarios",
      "outputs": [
        {
          "internalType": "string",
          "name": "url",
          "type": "string"
        },
        {
          "internalType": "uint256",
          "name": "dateCrea",
          "type": "uint256"
        }
      ],
      "stateMutability": "view",
      "type": "function"
    },
    {
      "inputs": [
        {
          "internalType": "string",
          "name": "_url",
          "type": "string"
        },
        {
          "internalType": "uint256",
          "name": "_crea",
          "type": "uint256"
        }
      ],
      "name": "createSeminario",
      "outputs": [],
      "stateMutability": "nonpayable",
      "type": "function"
    },
    {
      "inputs": [
        {
          "internalType": "string",
          "name": "_name",
          "type": "string"
        }
      ],
      "name": "createRandomSeminario",
      "outputs": [],
      "stateMutability": "nonpayable",
      "type": "function"
    },
    {
      "inputs": [
        {
          "internalType": "uint256",
          "name": "_x",
          "type": "uint256"
        },
        {
          "internalType": "uint256",
          "name": "_y",
          "type": "uint256"
        }
      ],
      "name": "add",
      "outputs": [
        {
          "internalType": "uint256",
          "name": "",
          "type": "uint256"
        }
      ],
      "stateMutability": "nonpayable",
      "type": "function"
    }
  ],
  "bytecode": "0x6080604052600160005560646000546200001a9190620001d0565b60015560406002553480156200002f57600080fd5b5062000221565b7f4e487b7100000000000000000000000000000000000000000000000000000000600052601160045260246000fd5b60008160011c9050919050565b6000808291508390505b6001851115620000c4578086048111156200009c576200009b62000036565b5b6001851615620000ac5780820291505b8081029050620000bc8562000065565b94506200007c565b94509492505050565b600082620000df5760019050620001b2565b81620000ef5760009050620001b2565b8160018114620001085760028114620001135762000149565b6001915050620001b2565b60ff84111562000128576200012762000036565b5b8360020a91508482111562000142576200014162000036565b5b50620001b2565b5060208310610133831016604e8410600b8410161715620001835782820a9050838111156200017d576200017c62000036565b5b620001b2565b62000192848484600162000072565b92509050818404811115620001ac57620001ab62000036565b5b81810290505b9392505050565b6000819050919050565b600060ff82169050919050565b6000620001dd82620001b9565b9150620001ea83620001c3565b9250620002197fffffffffffffffffffffffffffffffffffffffffffffffffffffffffffffffff8484620000cd565b905092915050565b610a9e80620002316000396000f3fe608060405234801561001057600080fd5b506004361061004c5760003560e01c80630627ad2a14610051578063771602f71461006d5780639b7ccca01461009d578063c399b3a5146100b9575b600080fd5b61006b6004803603810190610066919061041c565b6100ea565b005b6100876004803603810190610082919061049b565b610105565b60405161009491906104ea565b60405180910390f35b6100b760048036038101906100b29190610505565b61015b565b005b6100d360048036038101906100ce9190610561565b6101c1565b6040516100e192919061060d565b60405180910390f35b60006100f58261027d565b9050610101828261015b565b5050565b6000808284610114919061066c565b90507f81f25151b0f97637e2dd9409dff63e520d2760a2e7e6356bbe83ab1d8979e330848483604051610149939291906106a0565b60405180910390a18091505092915050565b6003604051806040016040528084815260200183815250908060018154018082558091505060019003906000526020600020906002020160009091909190915060008201518160000190816101b091906108e3565b506020820151816001015550505050565b600381815481106101d157600080fd5b90600052602060002090600202016000915090508060000180546101f490610706565b80601f016020809104026020016040519081016040528092919081815260200182805461022090610706565b801561026d5780601f106102425761010080835404028352916020019161026d565b820191906000526020600020905b81548152906001019060200180831161025057829003601f168201915b5050505050908060010154905082565b6000808260405160200161029191906109f1565b6040516020818303038152906040528051906020012060001c9050600254816102ba9190610a37565b915050919050565b6000604051905090565b600080fd5b600080fd5b600080fd5b600080fd5b6000601f19601f8301169050919050565b7f4e487b7100000000000000000000000000000000000000000000000000000000600052604160045260246000fd5b610329826102e0565b810181811067ffffffffffffffff82111715610348576103476102f1565b5b80604052505050565b600061035b6102c2565b90506103678282610320565b919050565b600067ffffffffffffffff821115610387576103866102f1565b5b610390826102e0565b9050602081019050919050565b82818337600083830152505050565b60006103bf6103ba8461036c565b610351565b9050828152602081018484840111156103db576103da6102db565b5b6103e684828561039d565b509392505050565b600082601f830112610403576104026102d6565b5b81356104138482602086016103ac565b91505092915050565b600060208284031215610432576104316102cc565b5b600082013567ffffffffffffffff8111156104505761044f6102d1565b5b61045c848285016103ee565b91505092915050565b6000819050919050565b61047881610465565b811461048357600080fd5b50565b6000813590506104958161046f565b92915050565b600080604083850312156104b2576104b16102cc565b5b60006104c085828601610486565b92505060206104d185828601610486565b9150509250929050565b6104e481610465565b82525050565b60006020820190506104ff60008301846104db565b92915050565b6000806040838503121561051c5761051b6102cc565b5b600083013567ffffffffffffffff81111561053a576105396102d1565b5b610546858286016103ee565b925050602061055785828601610486565b9150509250929050565b600060208284031215610577576105766102cc565b5b600061058584828501610486565b91505092915050565b600081519050919050565b600082825260208201905092915050565b60005b838110156105c85780820151818401526020810190506105ad565b60008484015250505050565b60006105df8261058e565b6105e98185610599565b93506105f98185602086016105aa565b610602816102e0565b840191505092915050565b6000604082019050818103600083015261062781856105d4565b905061063660208301846104db565b9392505050565b7f4e487b7100000000000000000000000000000000000000000000000000000000600052601160045260246000fd5b600061067782610465565b915061068283610465565b925082820190508082111561069a5761069961063d565b5b92915050565b60006060820190506106b560008301866104db565b6106c260208301856104db565b6106cf60408301846104db565b949350505050565b7f4e487b7100000000000000000000000000000000000000000000000000000000600052602260045260246000fd5b6000600282049050600182168061071e57607f821691505b602082108103610731576107306106d7565b5b50919050565b60008190508160005260206000209050919050565b60006020601f8301049050919050565b600082821b905092915050565b6000600883026107997fffffffffffffffffffffffffffffffffffffffffffffffffffffffffffffffff8261075c565b6107a3868361075c565b95508019841693508086168417925050509392505050565b6000819050919050565b60006107e06107db6107d684610465565b6107bb565b610465565b9050919050565b6000819050919050565b6107fa836107c5565b61080e610806826107e7565b848454610769565b825550505050565b600090565b610823610816565b61082e8184846107f1565b505050565b5b818110156108525761084760008261081b565b600181019050610834565b5050565b601f8211156108975761086881610737565b6108718461074c565b81016020851015610880578190505b61089461088c8561074c565b830182610833565b50505b505050565b600082821c905092915050565b60006108ba6000198460080261089c565b1980831691505092915050565b60006108d383836108a9565b9150826002028217905092915050565b6108ec8261058e565b67ffffffffffffffff811115610905576109046102f1565b5b61090f8254610706565b61091a828285610856565b600060209050601f83116001811461094d576000841561093b578287015190505b61094585826108c7565b8655506109ad565b601f19841661095b86610737565b60005b828110156109835784890151825560018201915060208501945060208101905061095e565b868310156109a0578489015161099c601f8916826108a9565b8355505b6001600288020188555050505b505050505050565b600081905092915050565b60006109cb8261058e565b6109d581856109b5565b93506109e58185602086016105aa565b80840191505092915050565b60006109fd82846109c0565b915081905092915050565b7f4e487b7100000000000000000000000000000000000000000000000000000000600052601260045260246000fd5b6000610a4282610465565b9150610a4d83610465565b925082610a5d57610a5c610a08565b5b82820690509291505056fea2646970667358221220f225a023941e585dd014457650ec0ae9cad78ef4494c2c12b530d56133326ffb64736f6c63430008110033",
  "immutableReferences": {},
  "source": "//SPDX-License-Identifier: UNLICENSED\npragma solidity ^0.8.17;\n\ncontract ChaoticumSeminario {\n\n  // Cela sera stock de manire permanente dans la blockchain.\n  uint noteMin = 1;\n  uint noteMax = noteMin ** 100;\n  uint nbConf = 64;\n\n    struct Seminario {\n        string url;\n        uint dateCrea;\n    }\n\n    Seminario[] public seminarios;\n\n    function createSeminario(string memory _url, uint _crea) public {\n        seminarios.push(Seminario(_url, _crea));        \n    }\n\n    function generateRandomDiapo(string memory _str) private view returns (uint) {\n        uint rand = uint(keccak256(abi.encodePacked(_str)));\n        return rand % nbConf;\n    }\n\n    function createRandomSeminario(string memory _name) public {\n        uint randDiapo = generateRandomDiapo(_name);\n        createSeminario(_name, randDiapo);\n    }    \n\n// dclaration de l'vnement\nevent IntegersAdded(uint x, uint y, uint result);\n\nfunction add(uint _x, uint _y) public returns (uint){\n  uint result = _x + _y;\n  // dclenchement de l'vnement pour indiquer  l'application que la fonction a t appele :\n  emit IntegersAdded(_x, _y, result);\n  return (result);\n}\n\n}",
  "sourcePath": "/Users/samszo/Documents/smartcontrat/THYP_22-23_SmartContrat/ChaoticumSeminario/contracts/ChaoticumSeminario.sol",
  "compiler": {
    "name": "solc",
    "version": "0.8.17+commit.8df45f5f.Emscripten.clang"
  },
  "schemaVersion": "3.4.10",
  "updatedAt": "2022-10-17T11:44:35.524Z",
  "devdoc": {
    "kind": "dev",
    "methods": {},
    "version": 1
  },
  "userdoc": {
    "kind": "user",
    "methods": {},
    "version": 1
  }
}